:0300000002096A88
:0C096A00787FE4F6D8FD7581200209B109
:1009F60053656E6420746865207072696D65730D49
:100A06000A005265636569766564200053656E6405
:100A1600207365636F6E642E2E0053656E64696E77
:100A260067205072696D657300526573756C743A10
:100A3600205052494D4500526573756C743A204EEC
:090A46004F54205052494D450067
:0B0BC500C102C101C100030F000000CD
:100A4F00E4F5A0C282C280C2817F38FE120B827F82
:100A5F00047E00120B047F067E00120B827F047E41
:100A6F0000120B047F0C7E00120B827F047E00129B
:100A7F000B047F017E00120B827F047E00120B0499
:070A8F007F807E00020B8254
:0A0AFA00C281D2828FA07F0A7E0025
:100B0400E4FDFCC3ED9FEC9E5015E4FBFA0BBB0027
:0F0B1400010ABA01F8BB7EF50DBD00010C80E4AB
:010B230022AF
:080A96007E007B007A00790F5D
:100A9E008E0A8F0B8B0C8A0D890E7C007D0A120933
:100AAE0015EF24301208E1AE0AAF0B7C007D0A125E
:100ABE000915ED2430AB0CAA0DA90E900001020809
:010ACE00F334
:090B79007E00120B827F807E00D9
:080B8200C280120AFAC28222AD
:080BDB00D280120AFAC2822244
:060ACF007BFF7A0A7908A2
:100AD5008B0A8A0B890CAB0AAA0BA90C1208C860F1
:100AE50013050CE50C7002050B14F91208C8FF126A
:050AF5000BDB80E22292
:100B8A00758920758DCC759850D28ED2ACD2AF2291
:080BE3008F993002FDC20222CD
:100B24008B0A8A0B890CAB0AAA0BA90C1208C860A1
:100B340013050CE50C7002050B14F91208C8FF121A
:050B44000BE380E2223A
:090B6600120B6FAD07ED24D0FE67
:090B6F00E4FF3001FDC201AF9961
:010B7800225A
:03002300020B9A33
:100B9A00309905C299D20232309804C298D20132F1
:100B4900E4FFFEE4FDFC0DBD00010CBC04F8BDFB97
:0C0B5900F50FBF00010EBE01EABF2CE743
:010B6500226D
:0C0BB90075C3BE43B104D2AF43C3402259
:03004B00020BAAFB
:0F0BAA00C0E0E5C430E70585C512D200D0E032C7
:0A0BD100C2008FC53000FDAF1222F4
:10080000E4FEFFF508F509120A4F120B7E120B8A5F
:100810007BFF7A0979F6120B24120B66AD07ED24E3
:10082000D0FFEE75F00AA42FF508120ACFAF081218
:100830000A967B007A00790F120AD57FC07E0012DB
:100840000B827BFF7A0A7912120AD57F327E001260
:100850000B04120B66EF24D0FFEE75F00AA42FF5FF
:10086000097F10120B79120ACFAF09120A967B008A
:100870007A00790F120AD57FE87E03120B047F01FC
:10088000120B797BFF7A0A7920120AD5120BB9C2B2
:1008900094120B49AF08120BD1120B00AF09120BC7
:1008A000D17F0A120B04E4FF120BD1A907D2947F67
:1008B000C0120B827BFFB901067A0A792F80047A75
:0808C0000A793D120AD580FE01
:10097600020800E493A3F8E493A34003F68001F28F
:1009860008DFF48029E493A3F85407240CC8C33382
:10099600C4540F4420C8834004F456800146F6DF51
:1009A600E4800B0102040810204080900BC5E47E11
:1009B600019360BCA3FF543F30E509541FFEE49346
:1009C600A360010ECF54C025E060A840B8E493A30D
:1009D600FAE493A3F8E493A3C8C582C8CAC583CA38
:1009E600F0A3C8C582C8CAC583CADFE9DEE780BEF0
:010BD0000024
:1008C800BB010689828A83E0225002E722BBFE022E
:0908D800E32289828A83E4932261
:1008E100BB010689828A83F0225002F722BBFE01F6
:0208F100F322F0
:1008F300F8BB010DE58229F582E5833AF583E8F03B
:10090300225006E92582C8F622BBFE05E92582C8E6
:02091300F222CE
:10091500BC000BBE0029EF8DF084FFADF022E4CCC6
:10092500F875F008EF2FFFEE33FEEC33FCEE9DEC8F
:10093500984005FCEE9DFE0FD5F0E9E4CEFD22EDD5
:10094500F8F5F0EE8420D21CFEADF075F008EF2F1F
:10095500FFED33FD4007985006D5F0F222C398FD10
:050965000FD5F0EA22AD
:00000001FF
