:030000000209688A
:0C096800787FE4F6D8FD7581200209AF0D
:1009F40053656E6420746865207072696D65730D4B
:100A04000A0057616974696E6720666F72206461B9
:100A14007461005265636569766564200053656E90
:100A240064207365636F6E642E2E0053656E646973
:0A0A34006E67205072696D65730053
:0B0BB600C102C101C100030F000000DC
:100A3E00E4F5A0C282C280C2817F38FE120B607FB5
:100A4E00047E00120AF37F067E00120B607F047E86
:100A5E0000120AF37F0C7E00120B607F047E0012E0
:100A6E000AF37F017E00120B607F047E00120AF3F0
:070A7E007F807E00020B6087
:0A0AE900C281D2828FA07F0A7E0036
:100AF300E4FDFCC3ED9FEC9E5015E4FBFA0BBB0039
:0F0B0300010ABA01F8BB7EF50DBD00010C80E4BC
:010B120022C0
:080A85007E007B007A00790F6E
:100A8D008E0A8F0B8B0C8A0D890E7C007D0A120944
:100A9D0013EF24301208DFAE0AAF0B7C007D0A1273
:100AAD000913ED2430AB0CAA0DA90E90000102081C
:010ABD00F147
:0B0B55007F017E00120B607F807E009D
:080B6000C280120AE9C28222E0
:080BCC00D280120AE9C2822264
:060ABE007B007A00790FB5
:100AC4008B0A8A0B890CAB0AAA0BA90C1208C66004
:100AD40013050CE50C7002050B14F91208C6FF127D
:050AE4000BCC80E222B2
:100B7B00758920758DCC759850D28ED2ACD2AF22A0
:080BD4008F993002FDC20222DC
:100B13008B0A8A0B890CAB0AAA0BA90C1208C660B4
:100B230013050CE50C7002050B14F91208C6FF122D
:050B33000BD480E2225A
:090B6800120B71AD07ED24D0FE63
:090B7100E4FF3001FDC201AF995F
:010B7A002258
:03002300020B8B42
:100B8B00309905C299D20232309804C298D2013200
:100B3800E4FFFEE4FDFC0DBD00010CBC04F8BDFBA8
:0C0B4800F50FBF00010EBE01EABF2CE754
:010B5400227E
:0C0BAA0075C3BE43B104D2AF43C3402268
:03004B00020B9B0A
:0F0B9B00C0E0E5C430E70585C512D200D0E032D6
:0A0BC200C2008FC53000FDAF122203
:10080000E4FEFFF508F509120A3E120B5C120B7BA1
:100810007BFF7A0979F4120B137BFF7A0A790612AF
:100820000AC4120B68AD07ED24D0FFEE75F00AA4E0
:100830002FF508120B557BFF7A0A7917120AC4AFFD
:1008400008120A85120ABE7FC07E00120B607BFF71
:100850007A0A7921120AC47F327E00120AF3120B3F
:1008600068EF24D0FFEE75F00AA42FF509120B559E
:100870007BFF7A0A7917120AC4AF09120A85120A95
:10088000BE7FE87E03120AF3120B557BFF7A0A79CA
:100890002F120AC4120BAAC294120B38AF08120B03
:1008A000C2120AEFAF09120BC27F46120AF3E4FF2D
:1008B000120BC2A907D2947FC0120B60AF01120ABB
:0608C00085120ABE80FE55
:10097400020800E493A3F8E493A34003F68001F291
:1009840008DFF48029E493A3F85407240CC8C33384
:10099400C4540F4420C8834004F456800146F6DF53
:1009A400E4800B0102040810204080900BB6E47E22
:1009B400019360BCA3FF543F30E509541FFEE49348
:1009C400A360010ECF54C025E060A840B8E493A30F
:1009D400FAE493A3F8E493A3C8C582C8CAC583CA3A
:1009E400F0A3C8C582C8CAC583CADFE9DEE780BEF2
:010BC1000033
:1008C600BB010689828A83E0225002E722BBFE0230
:0908D600E32289828A83E4932263
:1008DF00BB010689828A83F0225002F722BBFE01F8
:0208EF00F322F2
:1008F100F8BB010DE58229F582E5833AF583E8F03D
:10090100225006E92582C8F622BBFE05E92582C8E8
:02091100F222D0
:10091300BC000BBE0029EF8DF084FFADF022E4CCC8
:10092300F875F008EF2FFFEE33FEEC33FCEE9DEC91
:10093300984005FCEE9DFE0FD5F0E9E4CEFD22EDD7
:10094300F8F5F0EE8420D21CFEADF075F008EF2F21
:10095300FFED33FD4007985006D5F0F222C398FD12
:050963000FD5F0EA22AF
:00000001FF
