:03000000020945AD
:0C094500787FE4F6D8FD75812902098C4A
:100AF30056616C75653A200057616974696E672E9B
:030B03002E2E0093
:100A7300C100010B000308000000010F7001107199
:100A8300011172011273011374011475010C5001E9
:050A93000D51010E529F
:1009D100E4F5A0C282C280C2817F38FE120B127F71
:1009E100047E00120A537F067E00120B127F047EE2
:1009F10000120A537F0C7E00120B127F047E00123C
:100A01000A537F017E00120B127F047E00120A53EB
:070A11007F807E00020B1242
:0A0A4900C281D2828FA07F0A7E00D6
:100A5300E4FDFCC3ED9FEC9E5015E4FBFA0BBB00D9
:0F0A6300010ABA01F8BB7EF50DBD00010C80E45D
:010A72002261
:100A18008E258F268B278A2889297C007D0A120833
:100A2800F0EF24301208BCAE25AF267C007D0A12F8
:100A380008F0ED2430AB27AA28A929900001020864
:010A4800CEDF
:080B1200C280120A49C28222CE
:080B1A00D280120A49C28222B6
:100A99008B258A268927AB25AA26A9271208A360B0
:100AA900130527E5277002052614F91208A3FF127A
:050AB9000B1A80E2228F
:100ABE00E4FFFEE4FDFC0DBD00010CBC04F8BDFB23
:0C0ACE00F50FBF00010EBE01EABF2CE7CF
:010ADA0022F9
:0C0B060075C32C43B104D2AF43C340229E
:03004B00020800A8
:10080000C0E0C0F0C083C082C0D075D000C000C0BE
:1008100001C002C003C004C005C006C007E5C43063
:10082000E76685C515AF0B050B74162FF8A615E501
:050830000B640670538B
:10083500F524A80FA616A810A617A811A618A81281
:10084500A619A813A61AA814A61B120100A80EE63D
:10085500F524F5C5750B001209D17F807E00120BBA
:10086500127BFF7A0A79F3120A99AF247E007B0086
:100875007A007908120A187B007A007908120A9919
:03088500120A4F05
:10088800D007D006D005D004D003D002D001D000C4
:0B089800D0D0D082D083D0F0D0E0326E
:100ADB00120B061209D17F807E00120B127BFF7A5C
:080AEB000A79FB120A9980FE52
:100100007E00E5708573F0A4F8ABF0E5718574F0BE
:10011000A4F9ACF0E5728575F0A4F56E85F06F3149
:100120002EA96EAC6F312E88528B518E5022E82949
:09013000F8EB3CFB74003EFE22DA
:10095100020ADBE493A3F8E493A34003F68001F2D7
:1009610008DFF48029E493A3F85407240CC8C333A7
:10097100C4540F4420C8834004F456800146F6DF76
:10098100E4800B0102040810204080900A73E47E89
:10099100019360BCA3FF543F30E509541FFEE4936B
:1009A100A360010ECF54C025E060A840B8E493A332
:1009B100FAE493A3F8E493A3C8C582C8CAC583CA5D
:1009C100F0A3C8C582C8CAC583CADFE9DEE780BE15
:010A9800005D
:1008A300BB010689828A83E0225002E722BBFE0253
:0908B300E32289828A83E4932286
:1008BC00BB010689828A83F0225002F722BBFE011B
:0208CC00F32215
:1008CE00F8BB010DE58229F582E5833AF583E8F060
:1008DE00225006E92582C8F622BBFE05E92582C80C
:0208EE00F222F4
:1008F000BC000BBE0029EF8DF084FFADF022E4CCEC
:10090000F875F008EF2FFFEE33FEEC33FCEE9DECB4
:10091000984005FCEE9DFE0FD5F0E9E4CEFD22EDFA
:10092000F8F5F0EE8420D21CFEADF075F008EF2F44
:10093000FFED33FD4007985006D5F0F222C398FD35
:050940000FD5F0EA22D2
:00000001FF
