:0300000002097C76
:0C097C00787FE4F6D8FD7581200209C3E5
:100B30004E313A20004E323A200053756D3A200073
:0B0B400057616974696E672E2E2E004D
:0A0B6F00C100011500031200000090
:100A0800E4F5A0C282C280C2817F38FE120B7A7FD1
:100A1800047E00120AF37F067E00120B7A7F047EA2
:100A280000120AF37F0C7E00120B7A7F047E0012FC
:100A38000AF37F017E00120B7A7F047E00120AF30C
:070A48007F807E00020B7AA3
:0A0AE900C281D2828FA07F0A7E0036
:100AF300E4FDFCC3ED9FEC9E5015E4FBFA0BBB0039
:0F0B0300010ABA01F8BB7EF50DBD00010C80E4BC
:010B120022C0
:080A4F007E007B007A007912A1
:100A57008E0D8F0E8B0F8A1089117C007D0A12096B
:100A670027EF24301208E1AE0DAF0E7C007D0A128D
:100A77000927ED2430AB0FAA10A911900001020835
:010A8700F37B
:080B7A00C280120AE9C28222C6
:080B8200D280120AE9C28222AE
:060ABE007B007A007912B2
:100AC4008B0D8A0E890FAB0DAA0EA90F1208C860F0
:100AD40013050FE50F7002050E14F91208C8FF1272
:050AE4000B8280E222FC
:100B1300E4FFFEE4FDFC0DBD00010CBC04F8BDFBCD
:0C0B2300F50FBF00010EBE01EABF2CE779
:010B2F0022A3
:0C0B630075C32C43B104D2AF43C3402241
:040A8800AB07AA0608
:100A8C00C3EB9402EA94005002C322900002AF829E
:100A9C00AE83AD82AC83120915D3EF9BEE9A501046
:100AAC00AF03AE02120927ED4C7002C322A380DE05
:010ABC00D366
:010ABD002216
:03004B00020800A8
:10080000C0E0C0F0C083C082C0D075D000C000C0BE
:1008100001C002C003C004C005C006C007E5C42073
:10082000E7030208AD85C516AF15051574172FF837
:08083000A616E51564027075BF
:10083800E5172518F50CE433F50BAF0CFE120A8802
:1008480092013001047F0180027F008FC575150079
:10085800120A087F807E00120B7A7BFF7A0B7930B0
:10086800120AC4AF17120A4F120ABE7F20120B8257
:100878007BFF7A0B7935120AC4AF18120A4F120A95
:10088800BE120AEF7FC0120B7A7BFF7A0B793A12FD
:100898000AC47B007A007912AF0CAE0B120A571209
:0508A8000ABE120AEF78
:1008AD00D007D006D005D004D003D002D001D0009F
:0B08BD00D0D0D082D083D0F0D0E03249
:100B4B00120B63120A087F807E00120B7A7BFF7AEE
:080B5B000B7940120AC480FE70
:10098800020B4BE493A3F8E493A34003F68001F22F
:1009980008DFF48029E493A3F85407240CC8C33370
:1009A800C4540F4420C8834004F456800146F6DF3F
:1009B800E4800B0102040810204080900B6FE47E55
:1009C800019360BCA3FF543F30E509541FFEE49334
:1009D800A360010ECF54C025E060A840B8E493A3FB
:1009E800FAE493A3F8E493A3C8C582C8CAC583CA26
:1009F800F0A3C8C582C8CAC583CADFE9DEE780BEDE
:010B7900007B
:1008C800BB010689828A83E0225002E722BBFE022E
:0908D800E32289828A83E4932261
:1008E100BB010689828A83F0225002F722BBFE01F6
:0208F100F322F0
:1008F300F8BB010DE58229F582E5833AF583E8F03B
:10090300225006E92582C8F622BBFE05E92582C8E6
:02091300F222CE
:10091500EF8DF0A4A8F0CF8CF0A428CE8DF0A42EF6
:02092500FE22B0
:10092700BC000BBE0029EF8DF084FFADF022E4CCB4
:10093700F875F008EF2FFFEE33FEEC33FCEE9DEC7D
:10094700984005FCEE9DFE0FD5F0E9E4CEFD22EDC3
:10095700F8F5F0EE8420D21CFEADF075F008EF2F0D
:10096700FFED33FD4007985006D5F0F222C398FDFE
:050977000FD5F0EA229B
:00000001FF
