:030000000209569C
:0C095600787FE4F6D8FD75812002099D31
:100AD4004E313A20004E323A200053756D3A2000D0
:0B0AE40057616974696E672E2E2E00AA
:100B0700C100010C000309000000010D41010E4264
:030B17000108438F
:1009E200E4F5A0C282C280C2817F38FE120B277F4B
:1009F200047E00120A977F067E00120B277F047E78
:100A020000120A977F0C7E00120B277F047E0012D1
:100A12000A977F017E00120B277F047E00120A973D
:070A22007F807E00020B271C
:0A0A8D00C281D2828FA07F0A7E0092
:100A9700E4FDFCC3ED9FEC9E5015E4FBFA0BBB0095
:0F0AA700010ABA01F8BB7EF50DBD00010C80E419
:010AB600221D
:080A29007E007B007A007909D0
:100A31008E168F178B188A19891A7C007D0A120964
:100A410001EF24301208CDAE16AF177C007D0A12DB
:100A51000901ED2430AB18AA19A91A900001020866
:010A6100DFB5
:080B2700C280120A8DC2822275
:080B2F00D280120A8DC282225D
:060A62007B007A00790917
:100A68008B168A178918AB16AA17A9181208B4602A
:100A7800130518E5187002051714F91208B4FF12C7
:050A88000B2F80E222AB
:100AB700E4FFFEE4FDFC0DBD00010CBC04F8BDFB2A
:0C0AC700F50FBF00010EBE01EABF2CE7D6
:010AD3002200
:0C0B1B0075C32C43B104D2AF43C3402289
:03004B00020800A8
:10080000C0E0C0F0C083C082C0D075D000C000C0BE
:1008100001C002C003C004C005C006C007E5C43063
:10082000E77785C50FAF0C050C74102FF8A60FE500
:050830000C640270647D
:10083500F515A80DA610A80EA611120100A808E628
:10084500F515F5C5750C001209E27F807E00120BC7
:10085500277BFF7A0A79D4120A68AF10120A291287
:100865000A627F20120B2F7BFF7A0A79D9120A6858
:10087500AF11120A29120A62120A937FC0120B27BE
:100885007BFF7A0A79DE120A68AF15120A29120A65
:0408950062120A934E
:10089900D007D006D005D004D003D002D001D000B3
:0B08A900D0D0D082D083D0F0D0E0325D
:100AEF00120B1B1209E27F807E00120B277BFF7A0D
:080AFF000A79E4120A6880FE86
:07010000E5412542F5432211
:10096200020AEFE493A3F8E493A34003F68001F2B2
:1009720008DFF48029E493A3F85407240CC8C33396
:10098200C4540F4420C8834004F456800146F6DF65
:10099200E4800B0102040810204080900B07E47EE3
:1009A200019360BCA3FF543F30E509541FFEE4935A
:1009B200A360010ECF54C025E060A840B8E493A321
:1009C200FAE493A3F8E493A3C8C582C8CAC583CA4C
:1009D200F0A3C8C582C8CAC583CADFE9DEE780BE04
:010B1A0000DA
:1008B400BB010689828A83E0225002E722BBFE0242
:0908C400E32289828A83E4932275
:1008CD00BB010689828A83F0225002F722BBFE010A
:0208DD00F32204
:1008DF00F8BB010DE58229F582E5833AF583E8F04F
:1008EF00225006E92582C8F622BBFE05E92582C8FB
:0208FF00F222E3
:10090100BC000BBE0029EF8DF084FFADF022E4CCDA
:10091100F875F008EF2FFFEE33FEEC33FCEE9DECA3
:10092100984005FCEE9DFE0FD5F0E9E4CEFD22EDE9
:10093100F8F5F0EE8420D21CFEADF075F008EF2F33
:10094100FFED33FD4007985006D5F0F222C398FD24
:050951000FD5F0EA22C1
:00000001FF
