:03000000020A21D0
:0C0A2100787FE4F6D8FD758120020A6899
:100AAD0053656E6420746865207072696D65730D91
:100ABD000A0057616974696E6720666F7220646100
:100ACD007461005265636569766564200053656ED7
:100ADD0064207365636F6E642E2E0053656E6469BA
:0A0AED006E67205072696D6573009A
:0B0C9700C102C101C1000313000000F6
:100AF700E4F5A0C282C280C2817F38FE120C387F23
:100B0700047E00120BB57F067E00120C387F047E30
:100B170000120BB57F0C7E00120C387F047E00128A
:100B27000BB57F017E00120C387F047E00120BB5D7
:070B37007F807E00020C38F4
:050BB000120CA37F0AF6
:100BB500E4FDFCC3ED9FEC9E5015E4FBFA0BBB0076
:0F0BC500010ABA01F8BB7EF50DBD00010C80E4FA
:010BD40022FE
:080B3E007E007B007A007913B0
:100B46008E0E8F0F8B108A1189127C007D0A120976
:100B5600CCEF2430120998AE0EAF0F7C007D0A123E
:100B660009CCED2430AB10AA11A91290000102099C
:010B7600AAD4
:100C3800C280C281D2828FA07F0A7E00120BB5C209
:020C4800822206
:100C4A00D280C281D2828FA07F0A7E00120BB5C2E7
:020C5A008222F4
:100B77007F017E00120C387F807E00120C387BFFCD
:040B87007A0A79D09D
:100B8B008B0E8A0F8910AB0EAA0FA91012097F606A
:100B9B00130510E5107002050F14F912097FFF12EF
:050BAB000C4A80E2226B
:100C5C00758920758DCC759850D28ED2ACD2AF22BE
:080CAD008F993002FDC2022202
:100BD5008B0E8A0F8910AB0EAA0FA91012097F6020
:100BE500130510E5107002050F14F912097FFF12A5
:050BF5000CAD80E222BE
:100BFA007FC07E00120C387F0A7E00120BB5120CE1
:070C0A0011AD07ED24D0FE3F
:090C1100E4FF3001FDC201AF99BE
:010C1A0022B7
:03002300020C6C60
:100C6C00309905C299D20232309804C298D201321E
:100C1B00E4FFFEE4FDFC0DBD00010CBC04F8BDFBC4
:0C0C2B00F50FBF00010EBE01EABF2CE770
:010C3700229A
:0C0C8B0075C3BE43B104D2AF43C3402286
:03004B00020C7C28
:0F0C7C00C0E0E5C430E70585C516D200D0E032F0
:0A0CA300C2008FC53000FDAF16221D
:10080000E4FEFFF508F509F50AF50BF50CF50D12F8
:100810000AF77F807E00120C38120C5C7BFF7A0A8C
:1008200079AD120BD57BFF7A0A79BF120B8B120CB4
:1008300008AD07ED24D0FFEE75F00AA42FF50812DD
:100840000B77AF08120B3E7B007A007913120B8BEB
:100850007FC07E00120C387BFF7A0A79DA120B8B8C
:100860007F32120C03AD07ED24D0FFEE75F00AA421
:100870002FF509120B77AF09120B3E7B007A007936
:1008800013120B8B7F32120C03AD07ED24D0FFEE59
:1008900075F00AA42FF50A120B77AF0A120B3E7BF4
:1008A000007A007913120B8B120BFAAD07ED24D0EE
:1008B000FFEE75F00AA42FF50B120B77AF0B120B9E
:1008C0003E7B007A007913120B8B120BFAAD07ED09
:1008D00024D0FFEE75F00AA42FF50C120B77AF0CA5
:1008E000120B3E7B007A007913120B8B120BFAEF7E
:1008F00024D0FFEE75F00AA42FF50D120B77AF0D83
:10090000120B3E7B007A007913120B8B7FC07E00A6
:10091000120C387F327E00120BB57F01120C387F2B
:10092000807E00120C387BFF7A0A79E8120B8B125A
:100930000C8BC294120C1BAF08120CA37F0A7E0012
:10094000120BB5AF09120BB0AF0A120BB0AF0B12FE
:100950000BB0AF0C120BB0AF0D120BB0E4FF120CCA
:10096000A3A9077F0A120BB5D2947FC0120C38AF2F
:0F09700001120B3E7B007A007913120B8B80FE75
:100A2D00020800E493A3F8E493A34003F68001F2D7
:100A3D0008DFF48029E493A3F85407240CC8C333CA
:100A4D00C4540F4420C8834004F456800146F6DF99
:100A5D00E4800B0102040810204080900C97E47E86
:100A6D00019360BCA3FF543F30E509541FFEE4938E
:100A7D00A360010ECF54C025E060A840B8E493A355
:100A8D00FAE493A3F8E493A3C8C582C8CAC583CA80
:100A9D00F0A3C8C582C8CAC583CADFE9DEE780BE38
:010CA2000051
:10097F00BB010689828A83E0225002E722BBFE0276
:09098F00E32289828A83E49322A9
:10099800BB010689828A83F0225002F722BBFE013E
:0209A800F32238
:1009AA00F8BB010DE58229F582E5833AF583E8F083
:1009BA00225006E92582C8F622BBFE05E92582C82F
:0209CA00F22217
:1009CC00BC000BBE0029EF8DF084FFADF022E4CC0F
:1009DC00F875F008EF2FFFEE33FEEC33FCEE9DECD8
:1009EC00984005FCEE9DFE0FD5F0E9E4CEFD22ED1E
:1009FC00F8F5F0EE8420D21CFEADF075F008EF2F68
:100A0C00FFED33FD4007985006D5F0F222C398FD58
:050A1C000FD5F0EA22F5
:00000001FF
